:020000040800F2
:100000000018002071580008E91A0008EB1A0008CF
:1000100000000000000000000000000000000000E0
:10002000000000000000000000000000ED1A0008C1
:100030000000000000000000EF1A0008F11A00089C
:10004000F1580008F1580008F1580008F15800086C
:10005000F1580008F1580008F1580008F15800085C
:10006000F1580008F1580008F1580008F15800084C
:10007000F1580008F1580008F1580008F15800083C
:10008000F15800080000000000000000F1580008CE
:1000900000000000F1580008F1580008F15800086D
:1000A00000000000F1580008F15800082D1B00085E
:1000B000F158000800000000F1580008F15800084D
:1000C00010B5064C2378002B07D1054B002B02D02E
:1000D000044800E000BF0123237010BD0C00002085
:1000E000000000004C590008044B10B5002B03D051
:1000F0000349044800E000BF10BDC04600000000F6
:10010000100000204C590008002243088B4274D391
:1001100003098B425FD3030A8B4244D3030B8B4208
:1001200028D3030C8B420DD3FF22090212BA030C11
:100130008B4202D31212090265D0030B8B4219D3F2
:1001400000E0090AC30B8B4201D3CB03C01A524112
:10015000830B8B4201D38B03C01A5241430B8B425A
:1001600001D34B03C01A5241030B8B4201D30B0343
:10017000C01A5241C30A8B4201D3CB02C01A52416A
:10018000830A8B4201D38B02C01A5241430A8B422D
:1001900001D34B02C01A5241030A8B4201D30B0216
:1001A000C01A5241CDD2C3098B4201D3CB01C01A30
:1001B000524183098B4201D38B01C01A524143093A
:1001C0008B4201D34B01C01A524103098B4201D328
:1001D0000B01C01A5241C3088B4201D3CB00C01A95
:1001E000524183088B4201D38B00C01A524143080D
:1001F0008B4201D34B00C01A5241411A00D2014632
:10020000524110467047FFE701B5002000F006F8A4
:1002100002BDC0460029F7D076E770477047C04658
:1002200070B500220C4B04000D0001F0CBF9002842
:1002300004D12000290001F005F970BD064B002211
:100240002000290000F06CFD01F0FCF880231B0663
:100250009C466044F1E7C0460000E041F0B55746D7
:100260004E464546DE46E0B5814605000C03480093
:1002700092461F0085B0240B400DCE0F002800D100
:1002800056E1D44B984200D172E16B0FE4001C435D
:1002900080231B0423439846CF4BED009B4600234D
:1002A0009946834400933C037B005046240B5B0D2E
:1002B000FF0F002B00D11FE1C64A934200D162E13B
:1002C000C549420F8C46E4005946144380226344DA
:1002D0001204CB1A14439B46C200002033007B401B
:1002E0009A464B460F2B27D8BC499B00CB589F46BC
:1002F000B246009B022B16D0032B00D18EE2012BBD
:1003000000D0D9E000230024002552461B052343DA
:10031000D20713432800190005B0F0BCBB46B24613
:10032000A946A046F0BD00240025AA4BEDE7BA4639
:10033000A04615000090DCE7444500D2C7E100D19B
:10034000C2E101235B429C462E0040460025E34467
:100350002302140E1C431B0C994623041F0C12028B
:10036000494600920197FFF755FF02007A430B04BC
:10037000310C804619438A4207D901235B429C46CF
:100380000919E0448C4200D807E2881A4946FFF771
:1003900041FF09048C4631046646019A090C424328
:1003A000030031438A4204D90919013B8C4200D829
:1003B000EDE1881A424612041A4390464146009BDA
:1003C0000E041B0C1F000293009B360C1B04190C1F
:1003D0000B007343120C7E43039151437A431F0C6D
:1003E000BC4676186644B14203D9802149028C4646
:1003F0006244310C8A1831041E04360C8E19904266
:1004000002D312D1B54210D24346591E009B9C46DE
:1004100065441F009D429B415B421B19C0188442EA
:1004200000D2A0E100D19BE18846AE1BB542AD41B0
:10043000801A6D42401B844200D1D5E14946FFF746
:10044000E9FE019A0B044243310C050019438A422C
:1004500000D96CE1881A4946FFF7DCFE019A3604A0
:1004600042430904360C03000E43B24200D953E163
:100470000398B61A02002D041D43029F2B041B0C87
:100480005A437B439C46290C4843130C84446344E1
:100490007943984203D98020400284466144180C75
:1004A00012041B04120C41189B188E4200D2FFE06C
:1004B00000D1FAE001231D43494A5A44002A00DCD6
:1004C000AAE06B0700D03DE1ED084346DB0106D50D
:1004D0004246444B1A4090468022D2005A44424B36
:1004E0009A4200DD1FE743465B071D434346520522
:1004F0005C02240B530D08E75246224300D17BE0F7
:10050000002C00D1FAE0200001F066F802000B3A5E
:100510001D2301009B1A52460839DA408C401443CF
:1005200052468A40314B58449B4683440020D5E6CE
:100530004B462343984644D0002C00D1CEE0200007
:1005400001F04AF8010002000B391D235B1A4946ED
:100550001000D940083884400B004D46234398468C
:1005600085402348831A9B460023994600939AE6C8
:100570004B46234398461DD108239946063B002548
:10058000834600938FE65246224309D1022349460F
:100590001943184B89469C4600240220E3449DE6FB
:1005A00003234A461A43134B91469C465246032066
:1005B000E34493E60C239946093BA0468346009307
:1005C00071E60423994600239B46013300250093DE
:1005D00069E6C046FF07000001FCFFFF68590008FC
:1005E000FF030000FFFFFFFEFE070000F303000013
:1005F0000DFCFFFF01F8FFFF49460123194389461F
:10060000002401206AE6002380249A4600258A4BB4
:1006100024037AE601256D4201239B1A382B00DD65
:1006200070E61F2B00DCBFE01F2149428A1A4146B9
:10063000D1400A00202B04D04146804B5B449940B6
:100640000D436B1E9D4107232A431D0000241540C6
:10065000134200D1D4E00F2100231140042900D11E
:10066000CBE0111D9142924152429B180A0019029F
:1006700000D4C2E001230024002546E68023414641
:100680001B03194208D01C4206D11C432403BA465E
:100690001500694B240B38E68024434624031C4391
:1006A0002403B246644B240B2FE6002B00D103E752
:1006B000A619681EA64200D28DE08E4200D2A3E0A9
:1006C00000D1B3E00500F5E6AA4200D939E6434679
:1006D000DE0758086B081E43ED0739E6484600F070
:1006E0007BFF01000200153120321C2900DC2CE7C1
:1006F0004B46083883400025984632E700F06CFFEF
:1007000003001A00153220301C2A00DC00E7544692
:10071000083B00229C4005E73619013BB44200D952
:10072000A6E6B24200D8A3E6831E3619A0E6091950
:10073000013D8C4200D98DE68A4200D88AE6851EAA
:10074000091987E60F232B40042B00D1BCE60523B3
:100750005B42AB429B4104355B42ED089844B4E6F2
:10076000AF4200D960E6824204D800D05CE6AE42D7
:1007700000D859E602235B429C46009BE0449C461D
:1007800065449D429B415B421B19C0184DE68A425D
:1007900000D80EE6831E09190BE68A4200D8F4E55C
:1007A000831E98460919F0E52549280059448D40D3
:1007B00042468A40691E8D414146D840D940024395
:1007C0002A430B00510700D151E70F2111400429A2
:1007D00000D046E74BE705008E4200D06AE6009A5B
:1007E000934200D066E667E6164A5A44002A00DCC7
:1007F00010E701230025984467E65D075B021C0BA8
:10080000D2080023154380E50098023D4200824251
:10081000BF417F423C1936190092DDE780244346F0
:1008200024031C432403044B240B6EE5009A9A42D4
:10083000EAD30500D3E7C046FF0700003E040000EE
:100840001E040000FF030000F0B557464E46454623
:10085000DE46E0B598460C034B000600924687B092
:10086000240B5B0DCF0F002B00D15CE1D94A9342E2
:1008700000D175E1420FE4001443802212041443B6
:10088000D54AC500944663440093002399469B468D
:10089000434642461E03D20F5B0050469046360B3D
:1008A0005B0D00D120E1CB4A934200D162E1CA49FD
:1008B000420F8C4600996344F6008C461643802212
:1008C0009C44120463461643C20000200093009922
:1008D000434601318C4649467B4001930F2926D877
:1008E000BE4B890059588F4643460193340015008A
:1008F00083465B46022B16D0032B00D103E2012B6B
:1009000000D0CDE0002200240025019B12052243E7
:10091000DB071A432800110007B0F0BCBB46B24603
:10092000A946A046F0BD00240025AA4AEDE7280C00
:100930002D042D0C2B00110C1204120C534398465D
:1009400013002F00434399464F434F44BB4647464D
:100950000B003F0CBA464343DA440293D14504D915
:1009600080277F02B9464B44029353461B0C9B469B
:1009700053461F0443461B041B0C98463B0043444C
:100980000493330C3604360C98463300434399469F
:10099000434643432F009A46434677435D43380C12
:1009A0004D444519A94503D980235B029946CA44A1
:1009B0003F04280C3F0C2D04ED19270C2404240CB3
:1009C0000300200050437A4391463A005344059374
:1009D000030C9A464A43614349445144AB44894518
:1009E00003D980235B0299464A4400040B0C000C97
:1009F0000904091820009946434670435C437E432E
:100A00005F43030C9846A41944444A440397A64202
:100A100004D980235B029846474403972304029E2F
:100A20009A46059B5E449846AE42AD4176188E428A
:100A300089410004000C504440446D424719B846B7
:100A4000934649428946C344D94498428041A845C7
:100A5000AD4193459241894589416D4240422843C9
:100A6000240C524249420A43039B00198018C718BC
:100A70004B46DC0D049B75021D436A1E95414B4697
:100A8000F60D7F0235435A023C431543FB0100D467
:100A90001CE101216A080D401543E2071543640873
:100AA0004F496144002900DCB0E06B0709D00F22F8
:100AB0002A40042A05D02A1DAA42AD416D4264197C
:100AC0001500E30104D58021464AC9001440614461
:100AD000454A914200DD26E76207ED0864024905B8
:100AE0001543240B4A0D10E75246324300D17FE0F4
:100AF000002E00D1DCE0300000F06EFD02000B3A69
:100B00001D2301009B1A52460839DA408E401643D5
:100B100052468A40009B3549181A03008C466344AC
:100B200000200093D3E6250005434AD0002C00D1D5
:100B3000B0E0200000F050FD010002000B391D2341
:100B400010005B1A3100350008388440D9408540D8
:100B50000C432648831A0093002399469B4697E648
:100B60000500254326D10822009302230024914644
:100B70009B468DE65246009B324310D11549002614
:100B80008C46634449460093022319438946022058
:100B90009DE65B460197022B00D0ADE6C3E60D4A09
:100BA0000320944663444A46009303231A43914624
:100BB00052468CE60C2200930323050091469B4687
:100BC00066E60423994600230093013300249B46E4
:100BD0005EE6C046FF07000001FCFFFFA8590008C1
:100BE000FF030000FFFFFFFEFE0700000DFCFFFFFC
:100BF00049460123194389460026012067E6002360
:100C000080240025434A019324037EE60120401AF4
:100C1000382800DD76E61F285BDD1F2223005242C4
:100C2000511ACB401900202803D03B4A624494401B
:100C300025436A1E95412A000A4307210D0000241E
:100C4000154011425BD00F2100241140042953D0DC
:100C5000111D914292415242A4180A0023024BD521
:100C600001220024002550E680231B031C4209D0EA
:100C70001E4207D133431C0343461500240B254A6B
:100C8000019342E68022120314432403214A240BD9
:100C900001973AE600F0A0FC010002001531203275
:100CA0001C2900DC4BE7340008380025844050E75D
:100CB00000F092FC03001A00153220301C2A00DCE0
:100CC0001EE75646083B00229E4023E7009B9C46B9
:100CD000E6E61249220061442E008D408A40C6405B
:100CE000691E8D4132432A43C4405307B6D00F21B9
:100CF00011400429ACD1B1E765076402240BD20886
:100D00001543002201E68022120314432403014A02
:100D1000240BFAE5FF0700003E0400001E0400005B
:100D2000F8B557464E464546DE46E0B51E0017006C
:100D30004A000B03520D5B0A9046420F1A43CD0F37
:100D4000CD4C3103C300944670007A0F490AFF006E
:100D50009A46B946400DF60F1143A04200D1B1E0CA
:100D600001225640B346B54200D188E04246121AED
:100D7000002A00DCAEE0002800D1C1E0BE4880457A
:100D800000D151E1802000040143382A00DD7BE1DD
:100D90001F2A00DDEEE120203E00801A0C00D64024
:100DA000D140874062468440521A781E874194465B
:100DB00034432743DC1BA3429B4162465B42D31A68
:100DC00099464B461B0200D418E14B465802430A91
:100DD00099464B46002B00D137E1484600F0FCFB1A
:100DE000010008392023220048465B1ADA40884077
:100DF0008C4043461043884500DD36E1C91A4B1C40
:100E00001F2B00DDEAE020222600D21A01009440C8
:100E1000DE40D84000239140621E944181469846AE
:100E200031430C43630709D00F232340042B05D023
:100E3000231DA342A4416442A1441C004B461B0253
:100E400000D4DEE041468C4B0131994200D1E7E00D
:100E50004B468A48E4080340180049055B074002F6
:100E600023434A0D040B1205ED0722432A431800C1
:100E70001100F0BCBB46B246A946A046F8BD4246AA
:100E8000121A002A52DD002800D19CE0A04500D1B2
:100E9000CAE0802000040143382A00DD49E11F2A0E
:100EA00000DC97E110000E002038C640202A04D054
:100EB0004020821A91400F43B9464C46621E94412D
:100EC00034433AE10A003A4328D0B346B5422BD026
:100ED0006B4A4244002A5DD042464446821A002CA6
:100EE00000D0F5E065461D4300D19CE1551E012A66
:100EF00000D1FBE1604CA24200D1BDE12A00F0E04C
:100F00000800384300D1C3E0501E012A00D1A8E1F7
:100F1000594CA24200D187E0020036E70122564038
:100F2000B346B54200D021E7554A4244002A00D1D9
:100F3000B5E042464446821A002C00D138E14E4EBC
:100F4000B04200D1DEE18026644636043443A44634
:100F5000382A00DD96E11F2A00DD24E22026B41A9B
:100F6000A24664465646B440A1461C004E46D440B4
:100F7000264334005646B3405E1EB3411C436346CD
:100F8000D340C918E419BC42BF417F42B9468046EC
:100F90008944D8E040463B4C0130204200D0B4E0C8
:100FA0004046002800D044E16046184300D190E15B
:100FB0000800384300D0AAE16146DB0849070B432B
:100FC0006146CC0827E00800384361D0501E012A52
:100FD00000D139E1A24227D002005DE702001F39AB
:100FE000CA401100202B03D04022D31A984004435A
:100FF000631E9C410023994698460C43630700D02A
:1010000012E74B464A46E4085B072343D4084246AE
:1010100019498A420ED024035205240B520D22E7AF
:101020000A00002400231EE7DB0862465207134330
:101030006246D4081A00224300D1FCE18022120348
:10104000144324030C4A240B0DE7200000F0C4FADB
:10105000010018311F2900DCC4E6083884404346EB
:1010600020000024884500DCC8E6044A5B1A1040D2
:1010700098468146D6E6C046FF070000FFFF7FFF87
:1010800001F8FFFFFE0700000F437A1E974191E62B
:101090006146DB0849070B436146CC08B8E7404688
:1010A000D34C0130204200D0A2E04046002800D0BE
:1010B00001E16046184300D15EE10800384300D0EA
:1010C0005FE16146DB0849070B436146CC08A2E7B4
:1010D000C84DA84200D1CFE0802564462D042C43A2
:1010E000A446382A56DC1F2A00DDD1E020251E0048
:1010F000AD1A6446AB40AC40D6405D1EAB413443B4
:1011000023436446D440091B49E06046DC1B461A71
:10111000A34280414042814630004E46801B8146BA
:10112000000276D44B46234300D052E6002400252B
:1011300071E739430C00621E9441E4189C429B41C4
:101140005B42634499464B461B0200D456E7012399
:101150009C46A84BE044984538D04B46A64801220F
:1011600003401800630814401C43C3071C43430892
:10117000994657E610000E002038C640202A04D0B9
:101180004020821A91400F43B9464F467A1E97413C
:1011900037430FE662461A4313005A1E9341FC1A66
:1011A000A742BF417F42CB1B99465D46804608E679
:1011B00066461E4300D1BEE0561E012A00D109E159
:1011C0008C4CA24200D119E13200C1E64246002413
:1011D000002348E620200C00801A3E00874084400F
:1011E000D640781E8741D14034433C438C44A4E729
:1011F000804A904200D1E9E0DF199F429B4161445F
:101200005B42C918CC077F084B08994680463C438F
:10121000F4E6FC1AA742BF4163467F42C91ACB1BC2
:1012200099465D46D5E5FF084B075D463B43CC0834
:10123000EEE662461A4300D082E00B003B431BD12E
:10124000802400252403F9E6DC199C429B4161447B
:1012500089465B4299444B461B0244D4012398467D
:10126000CCE6DC1B6246A3429B41511A5B42CB1A7F
:10127000994601239846A4E5FF084B075D463B438A
:10128000CC08D7E662461A431400631E9C4179E6F7
:1012900015006446203DEC40A046202A05D040259C
:1012A0006446AA1A944023439A465446631E9C41BE
:1012B0004346234373E762461A4323D00A003A4366
:1012C00000D0A0E06246DB08520713436246D40810
:1012D000B0E60B003B4300D128E7FF084B075D4613
:1012E0003B43CC0897E60223984636E7FC1AA74210
:1012F000BF4163467F42C91ACB1B994601235D4615
:1013000098465EE54B07FF083B43CC0892E6DC1BA2
:101310006046A342B641401A7642801B81460002D5
:1013200060D5FC1AA742BF4163467F42C91ACB1B56
:1013300099465D4676E5FF084B073B43CC0867E6D8
:101340000A00DB083A4300D16FE6624652071343B6
:101350006246D40880221203144207D0C808104203
:1013600004D15D460400FB0849070B435A0FDB001C
:10137000DB08520713435DE64B07FF083B43CC08ED
:1013800049E6DC199C429B41614489465B42994491
:101390004B461B0200D431E64A46174B1A40012344
:1013A000914698462AE616006446203EF440A04640
:1013B000202A05D040266446B21A944023439A4618
:1013C0005446631E9C4143461C43DBE50200002457
:1013D000002348E5DC19BC42BF41614489467F4295
:1013E000B94438E74B46234300D19FE606E6C046A2
:1013F000FE070000FF070000FFFF7FFFFF084B070D
:101400003B43CC0816E66246DB08520713436246AC
:10141000D40880221203144207D0C808104204D115
:101420005D460400FB0849070B435A0FDB005207D7
:10143000DB081343FEE50023014A1C0013E5C04608
:10144000FF0700000A0030B5134C530009030500E4
:10145000090B00205B0DD20FA34204DD0F4883422D
:1014600002DD0F4BD01830BD8020400301430D48F2
:10147000C01A1F2808DD0C48C31AD9400B00584277
:10148000002AF0D11800EEE7084CC540A44663449A
:1014900099400B002B43F2E7FE0300001D040000FF
:1014A000FFFFFF7F3304000013040000EDFBFFFF8C
:1014B00070B5002816D0C317C5185D40C40F2800AA
:1014C00000F08AF8114A121A0A2816DC03002E00CE
:1014D00015339E400B23181AC54052052D032D0BC2
:1014E000530D03E000240023002500261B052B4399
:1014F000E40723433000190070BD0B3885405205C6
:101500002D0300262D0B530DF0E7C0461E040000EE
:1015100010B5041E10D000F05FF80F4B1B1A0A28FC
:1015200011DC0B222100121AD14015300A035B0591
:101530008440120B5B0D01E0002300221B051343C6
:101540002000190010BD22000B3882405B051203F9
:101550000024120B5B0DF1E71E040000844610000E
:1015600062468C461900634600E0C0461FB500F095
:10157000F9F8002801D40021C8421FBD10B500F0C1
:1015800049F84042013010BD10B500F0EBF80028DA
:1015900001DB002010BD012010BDC04610B500F0D9
:1015A000E1F8002801DD002010BD012010BDC0467B
:1015B00010B500F071F8002801DC002010BD0120FA
:1015C00010BDC04610B500F067F8002801DA002011
:1015D00010BD012010BDC0461C2101231B049842F0
:1015E00001D3000C10391B0A984201D3000A0839B4
:1015F0001B09984201D30009043902A2105C40186B
:101600007047C0460403020201010101000000000E
:1016100000000000F0B54E464546DE46574690466F
:10162000E0B517001A03120B0500844619480E0393
:101630004C0091465A00DB0F9B46360B640DC90FD8
:10164000520D844219D0824210D0012094420ED112
:101650004E450CD10120C44509D1594517D0002C65
:1016600005D130002843431E984100E00120F0BC22
:10167000BB46B246A946A046F0BD330001202B432D
:10168000F5D1A242F3D14B463B43F0D1E2E7002033
:10169000EDE7C046FF070000F0B54746CE46040020
:1016A000180016001B031B0B2D4D4A00994680B5F0
:1016B00043000F03A446B0463F0B520DC90F5B0D0C
:1016C000C00FAA4221D0AB4213D0002A22D13C4302
:1016D000002B02D14D462E4322D0002C10D0814247
:1016E00022D00220013908400138C0BCB946B046BA
:1016F000F0BD4D462E4329D1002AF0D13C43EED116
:101700000028F2D101204042EFE73D0025431DD1E2
:101710009342EED0002BE2D14C462643DFD1E0E7E6
:101720000020002CE1D0DCE79A420ADCE8DB4F45E0
:10173000D7D80ED000204F45D7D20029E2D00800DC
:10174000D3E74342584140000138CEE702204042EF
:10175000CBE7C445C5D80020C445C6D2EDE7C04696
:10176000FF070000F0B54746CE46040018001600FB
:101770001B031B0B2C4D4A00994680B543000F03F9
:10178000A446B0463F0B520DC90F5B0DC00FAA42D5
:101790000DD0AB4210D0002A27D13C43002B11D1F1
:1017A0004D462E430ED10020002C15D00EE03D00FA
:1017B000254310D1934218D14D462E430BD1002A18
:1017C00002D13C43002C0BD0814214D002200139BD
:1017D0000840013800E00220C0BCB946B046F0BD68
:1017E0000028F9D101204042F6E7002BECD14C460D
:1017F0002643E9D1EAE79A4204DD434258414000DA
:101800000138E9E79A42EBDB4F45DFD806D00020EC
:101810004F45E1D20029E5D00800DDE7C445D5D821
:101820000020C445D8D2F5E7FF07000072B6FEE7F6
:1018300000B599B0342200210BA804F07FF81022E3
:10184000002107A804F07AF81822002101A804F06A
:1018500075F80B230B930A3B0C930E9310220F92F7
:1018600012930133149380235B02159380235B034F
:1018700016930BA800F07AF9002818D107230793D4
:10188000053B0893002309930A93012107A800F060
:101890004BFC00280DD121230193002303930493D3
:1018A00001A800F0F9FC002805D119B000BDFFF730
:1018B000BDFFFFF7BBFFFFF7B9FF000070B500F0F9
:1018C000B5FDFFF7B5FF00F0A3F803F07DFF01F0D1
:1018D000B5FB02F0EDF802F09BFC03F0CDFA03F04B
:1018E00011FC03F01BFB002002F0F4FA012002F0CF
:1018F000F1FA03F0BBFB002407E0E01CC0B203F0E8
:10190000E5FB02F0EFFB0134E4B2042CF5D93A4CCC
:10191000200003F0FDFE32223849200003F0B0FD24
:10192000200003F07DFD364C01221021200001F043
:1019300054FA01222021200001F04FFA5AE002F06F
:1019400031FC0134E4B2042C1BD8E01CC0B203F01B
:10195000BDFB200003F04AFB0028F0D0200003F07C
:1019600045FB7B28EBD8200003F068FB0028E8D17A
:10197000200003F041FB200003F038FB02F0FCFBE9
:10198000DFE7204C204B236003F02CFF6060012434
:1019900016E0621ED3175B0FD21807201040C01A42
:1019A0000825A542AD416D42C0B2290002F0E4F91C
:1019B000280002F0A9FA0134A200124BD050E4B280
:1019C000102CE6D90022012306E098000D49415869
:1019D000521892B20133DBB2112BF6D9140403F082
:1019E0003FFB204307498864FA239B004C220748A9
:1019F00003F077F80024A6E71002002094020020EC
:101A00000004004828000020AA55000040010020E2
:101A1000F0B5C64600B588B01422002103A803F033
:101A20008DFF2E4B59698020C003014359615A69CB
:101A300002400092009A5969802080020143596156
:101A40005A6902400192019A5A698021C9020A43E7
:101A50005A615B690B400293029B214C9023DB058A
:101A6000984600222100180001F0B7F91D4D002210
:101A70003021280001F0B1F90394012604960024D6
:101A800005940327069703A9404601F0DFF8039762
:101A90000494059603A9280001F0D8F880235B017F
:101AA00003930494059603A9404601F0CFF8082358
:101AB000039388235B030493059403A9280001F092
:101AC000C5F83023039304960594069703A92800CC
:101AD00001F0BCF808B080BCB846F0BD0010024070
:101AE0001888000000040048FEE7FEE770477047D2
:101AF00010B500F0ABFC02F06BFB03F089FA03F0C9
:101B0000A5FA084A138801339BB21380962252002B
:101B1000934200D210BD044803F0F8F9014B0022B3
:101B20001A80F7E774000020C801002010B50248B1
:101B300002F018FC10BDC0464001002082B00A4BE4
:101B4000996901221143996199690A400092009AAA
:101B5000DA69802149050A43DA61DB690B400193A8
:101B6000019B02B07047C0460010024070B582B0C1
:101B7000041E00D17FE20368DB072BD5B34B5A6804
:101B80000C231340042B1DD0B04B5A680C23134078
:101B9000082B0ED06368012B41D0002B56D1AB4BE4
:101BA0001A68AB490A401A601A68AA490A401A60C2
:101BB0003BE0A64B5B68C0225202134080225202D7
:101BC0009342E7D1A14B1B689B0303D56368002BAD
:101BD00000D153E223689B0777D59C4B5B680C22AE
:101BE0001A4262D0994B5A680C231340082B53D0E9
:101BF000E368002B00D18AE0944A136801210B436B
:101C0000136000F02FFC0500904B1B689B0775D4F8
:101C100000F028FC401B0228F6D903202CE28B4A56
:101C2000116880235B020B4313606368002B25D08F
:101C300000F018FC0500854B1B689B03CAD400F01C
:101C400011FC401B6428F6D9032015E2052B09D0AE
:101C50007E4B1A687E490A401A601A687D490A401C
:101C60001A60E2E7794B19688022D2020A431A60AF
:101C70001968802252020A431A60D6E700F0F2FB8C
:101C80000500724B1B689B03A4D500F0EBFB401BC7
:101C90006428F6D90320EFE16C4B5B68C022520246
:101CA0001340802212029342A2D1684B1B689B070B
:101CB00003D5E368012B00D0E2E164490B68F82208
:101CC00093432269D20013430B6023681B0744D55A
:101CD000E369002B2ED05D4A536A01210B43536206
:101CE00000F0C0FB0500594B5B6A9B0735D400F040
:101CF000B9FB401B0228F6D90320BDE153490B680C
:101D0000F82293432269D20013430B60DDE74F4A68
:101D1000136801218B43136000F0A4FB05004B4BBB
:101D20001B689B07D1D500F09DFB401B0228F6D90C
:101D30000320A1E1454A536A01218B43536200F01D
:101D400091FB0500414B5B6A9B0706D500F08AFBBF
:101D5000401B0228F6D903208EE123685B0700D4DC
:101D600080E03A4BDB69DB001DD4384AD169802022
:101D700040050143D161D36903400193019B0125D3
:101D8000354B1B68DB0510D5A368012B21D0002B38
:101D900036D12E4B1A6A01218A431A621A6A03311C
:101DA0008A431A621AE00025EAE72B4A1168802369
:101DB0005B000B43136000F055FB0600264B1B68CD
:101DC000DB05E1D400F04EFB801B6428F6D903202C
:101DD00052E11E4A136A01210B431362A368002BD0
:101DE00024D000F03FFB0600184B1B6A9B0737D43A
:101DF00000F038FB801B194B9842F5D903203BE1DA
:101E0000052B09D0114B1A6A01218A431A621A6AFA
:101E100003318A431A62E1E70C4B1A6A04210A4330
:101E20001A621A6A03390A431A62D7E700F01AFBEA
:101E30000600064B1B6A9B0712D500F013FB801BA4
:101E4000064B9842F5D9032016E1C0460010024027
:101E5000FFFFFEFFFFFFFBFF007000408813000044
:101E6000012D39D02368DB0610D56369012B39D0E9
:101E7000053357D1894A536B04218B435363536B0A
:101E8000F4318B43A169C9000B43536323689B065C
:101E90006ED5824B5A680C2313400C2B60D07F4BBD
:101EA0005A680C231340082B53D0236A002B7ED092
:101EB0007A4A516B80235B020B43536300F0D2FAE2
:101EC0000500764B5B6B9B0352D400F0CBFA401BB2
:101ED0000228F6D90320CFE0704AD36970490B403D
:101EE000D361BFE76D4B5A6B04210A435A635A6BA7
:101EF00003390A435A6300F0B5FA0500674B5B6B80
:101F00009B0706D400F0AEFA401B0228F6D9032046
:101F1000B2E062494B6BF8229343A269D2001343AB
:101F20004B63B3E75D4B5A6B04210A435A635A6B08
:101F300003398A435A6300F095FA0500574B5B6BEF
:101F40009B07A3D500F08EFA401B0228F6D9032088
:101F500092E0524B5B68C022520213409342A4D1DC
:101F60004E4B5B6B9B0303D5236A012B00D089E0AA
:101F7000636A002B00D187E0484A51680C220A406E
:101F8000082A60D0022B25D0444A136845490B40EB
:101F9000136000F067FA0400404B1B689B0150D5AA
:101FA00000F060FA001B0228F6D9032064E03B4AE7
:101FB000536B3D490B40536300F054FA0500374B17
:101FC0005B6B9B03D4D500F04DFA401B0228F6D979
:101FD000032051E0314A136832490B40136000F08E
:101FE00041FA05002D4B1B689B0106D500F03AFA1B
:101FF000401B0228F6D903203EE0284BDA6A0F2165
:102000008A43216B0A43DA625A6828490A40E16A26
:10201000A06A01430A435A601968802252040A43A5
:102020001A6000F01FFA04001C4B1B689B0106D4C9
:1020300000F018FA001B0228F6D903201CE000204B
:102040001AE0002018E0012B20D0144B5A68D96AFE
:10205000C0235B021340A06A834219D10F230B40B7
:10206000216B8B4216D1F0239B031A40E36A9A42FC
:1020700012D1002000E0012002B070BD0120FBE77A
:102080000120F9E70120F7E70020F5E70120F3E759
:102090000120F1E70120EFE70120EDE70010024009
:1020A000FFFFFFEFFFFFFFFEFFFFFEFFFF7FC2FF0F
:1020B00010B5184B5A680C231340082B03D00C2B77
:1020C00025D1154810BD910C0F2319401348445CCD
:1020D0001049C96A0B401249C95CC0235B021A400F
:1020E00080235B029A4208D0C0235B029A4209D047
:1020F0000C48FEF709F86043E4E70A48FEF704F8E5
:102100006043DFE70448FDF7FFFF6043DAE7054877
:10211000D8E7C04600100240006CDC02E859000815
:10212000F859000800127A0070B504000D0000286C
:1021300000D186E0474B1A68012313408B420AD234
:1021400044490B68012293432B430B600B681A40F0
:10215000AA4200D077E023689A070ED55B0705D521
:102160003D4A5168E023DB000B4353603A4A536811
:10217000F0218B43A1680B4353602368DB0735D5FF
:102180006368012B09D0022B24D0032B28D0324ABC
:102190001268920705D4012052E02F4A1268920378
:1021A00053D52D494A680320824313434B6000F006
:1021B00059F90600284B5B680C221A4063689B00A3
:1021C0009A4213D000F04EF9801B244B9842F1D96B
:1021D000032035E0204A12689201E2D401202FE06A
:1021E0001D4A526B9203DCD4012029E0194B1A6876
:1021F00001231340AB4209D916490B6801229343CE
:102200002B430B600B681A40AA4220D123685B075E
:1022100006D5114A536812490B40E1680B435360DD
:10222000FFF746FF0C4B5A6812090F2313400D4A63
:10223000D35CD8400C4B1860012000F0CFF8002090
:1022400070BD0120FCE70120FAE70120F8E701203A
:10225000F6E7C0460020024000100240881300004C
:10226000FFF8FFFF085A000808000020014B18681B
:102270007047C0460800002010B5FFF7F7FF044B79
:102280005A68120A07231340024AD35CD84010BD93
:1022900000100240185A000870B582B004000368AC
:1022A000DB0337D5474BDB69DB005DD4454AD16999
:1022B000802040050143D161D36903400193019B14
:1022C0000125414B1B68DB0550D53E4B1A6AC023E4
:1022D0009B00110019401A4213D0626813408B42D0
:1022E0000FD0384B186A394A02401E6A80214902D1
:1022F00031431962196A364E314019621A62C307B6
:1023000048D4304A136A31490B4061680B43136269
:10231000012D4ED02368DB0706D52A4A136B032113
:102320008B43A1680B43136323689B0606D5254A9C
:10233000136B10218B43E1680B43136323689B03EA
:1023400006D5204A136B80218B4361690B431363CD
:1023500023685B0532D51B4A136B40218B432169EF
:102360000B43136300202AE00025AAE7164A1168F0
:1023700080235B000B43136000F074F80600124BDF
:102380001B68DB05A1D400F06DF8801B6428F6D92A
:10239000032014E000F066F806000A4B1B6A9B0756
:1023A000AFD400F05FF8801B0A4B9842F5D90320A8
:1023B00005E0D36908490B40D361ABE7002002B0C8
:1023C00070BDC0460010024000700040FFFCFFFFDF
:1023D000FFFFFEFF88130000FFFFFFEF10B50400B2
:1023E0000F4B1978FA208000FDF78EFE01000D4B8F
:1023F0001868FDF789FE00F003FE00280DD1032CBC
:1024000001D901200AE0013000222100404200F001
:10241000BBFD054B1C60002000E0012010BDC04644
:1024200000000020080000200400002010B5064A2B
:10243000136810210B4313600120FFF7CFFFFFF754
:102440007DFB002010BDC04600200240034A1168F9
:10245000034B1B785B1813607047C0467800002060
:1024600000000020014B18687047C046780000202B
:1024700003689A69920701D500229A6203689A69F3
:10248000D20703D49A6901210A439A617047000078
:1024900010B58905890D120411431943029B194394
:1024A00049004908046862685B0D8020C000034051
:1024B000024803439A431143616010BDFF63FF0369
:1024C000F0B5C64600B504000D00170001688B6921
:1024D000102216001E401A4200D175E01023CB6175
:1024E00000239846002623689869820631D4002E7E
:1024F0002FD16B1CF7D0FFF7B5FFC01BA84201D846
:10250000002DF0D121684B688022D2011340422275
:10251000A25CD2B28869000403D5002B01D1202A25
:102520000ED123689B699B06DDD4FFF79BFFC01B80
:102530001928F6D9202342461A4390460126D2E7AD
:102540004A688023DB0113434B60FFF78BFF0700D2
:10255000E7E7002E01D12022DA6104264346334307
:102560001E00012522689369D90504D501210E4377
:10257000FF31D16101255A0506D50822164322688C
:102580008021C900D16101259B051FD502231E436F
:10259000236880229200DA6101252000FFF768FF9E
:1025A000226853680B490B405360636C1E4366649A
:1025B00041232022E25400232232A354023AA3549E
:1025C000280080BCB846F0BD0025CBE7002DF7D031
:1025D000E3E7C04600E800FE70B504000D001600F9
:1025E00023689B699B0720D4320029002000FFF755
:1025F00067FF00281BD16B1CF2D0FFF733FF801B55
:10260000A84201D8002DEBD123689B699B07E7D432
:10261000636C2022134363644123E254002322327B
:10262000A354023AA354012000E0002070BD012011
:10263000FCE7F0B5D6464F4680B583B007000D00E5
:10264000160099460A9B9A463B689C692C40641B7D
:1026500063425C410196B44228D152464946380053
:10266000FFF72EFF002827D14B460133ECD0FFF7B0
:10267000F9FE5346C01A484502D84B46002BE3D119
:102680003B689B692B405B1B5A425341019A934222
:10269000DAD17B6C202213437B644123FA5400235C
:1026A0002232BB54023ABB54012000E0002003B0A8
:1026B000C0BCBA46B146F0BD0120F8E770B50400D1
:1026C0000D00160003E023689B699B0612D5236862
:1026D0009B699B061BD4320029002000FFF7F0FE07
:1026E000002816D1FFF7BEFE801BA842EBD8002DB4
:1026F000EDD1E8E7636C2022134363644123E25485
:1027000000232232A354023AA354012000E0002007
:1027100070BD0120FCE70000F8B504000E001700B2
:10272000002518E000236364FFF79CFEC01BB04245
:1027300001D8002E0FD1002D0DD123689B695B07B6
:1027400009D4636C2022134363644123E254013BA8
:102750000022E254013523689B695B0728D4002DD1
:1027600026D13A0031002000FFF7AAFE002800D051
:10277000012523689A699206D6D5002DD4D19A698D
:102780009A69D206CED51022DA61042363642368E5
:102790001032DA6121684B68064803404B604123E0
:1027A000E25400232232A354023AA3540135BBE77A
:1027B0002800F8BD00E800FE10B5041E60D04123DB
:1027C000C35C002B48D041232422E25422681368C2
:1027D00001218B43136022682A4B61680B4013610F
:1027E0002268936828490B409360E368012B39D035
:1027F000226884231B02A1680B439360E368022BC9
:1028000037D02268536821490B40536022685168D1
:102810001F4B0B4353602268D3681B490B40D360A6
:10282000236962691343A269120221681343CB60D2
:102830002268E369216A0B4313602268136801214F
:102840000B4313600023636441221F31A1542363AF
:102850000132A354002010BD40330022C25401F0C5
:1028600057F9B0E7226880231B02A1680B439360ED
:10287000C4E72268516880231B010B435360C5E7FE
:102880000120E8E7FFFFFFF0FF7FFFFFFFF7FFFFFB
:1028900000800002F0B585B004000E0002920393A0
:1028A0000A9D4123C35C202B00D0AEE02033C35CE3
:1028B000012B00D1ACE040230122C254FFF7D2FD2E
:1028C0000700802100901923012209022000FFF750
:1028D000B0FE002800D09DE041232122E2540133C4
:1028E000113AE25400236364029A6262039A628599
:1028F0006363638D9BB2FF2B1ED9FF232385802347
:102900005B04228D002A1CD022680299097891620A
:10291000626A01326262628D013A92B26285228DF0
:10292000013A92B222850132D2B23E490091310081
:102930002000FFF7ADFD18E0638D238580239B0405
:10294000DFE7D2B23749009131002000FFF7A0FD48
:102950000BE0628D92B222858023D2B200210091D9
:102960009B0431002000FFF793FD638D9BB2002B89
:1029700034D03A0029002000FFF72EFE00284BD16A
:102980002368626A12789A62636A01336362638DB4
:10299000013B9BB26385238D013B9BB22385628DF6
:1029A00092B2002AE1D0002BDFD100972B00002249
:1029B00080212000FFF73DFE00282FD1638D9BB2C0
:1029C000FF2BC6D9FF2323857F3B002200925B04A7
:1029D000FF3231002000FFF75BFDC6E73A00290017
:1029E0002000FFF76BFE00281AD123682022DA614D
:1029F00021684B680C4D2B404B604123E25400236F
:102A00002232A354023AA35400E0022005B0F0BDE4
:102A10000220FBE70120F9E70120F7E70120F5E7B5
:102A20000120F3E70020008000E800FEF0B585B04B
:102A300004000F00029203930A9D4123C35C202BE4
:102A400000D09BE02033C35C012B00D199E04023F0
:102A50000122C254FFF706FD0600802100901923D1
:102A6000012209022000FFF7E4FD002800D08AE0DF
:102A700041232222E2540133123AE25400236364D8
:102A8000029A6262039A62856363638D9BB2FF2B35
:102A90000BD9012323857F333F4A00925B04012237
:102AA00039002000FFF7F4FC18E0628D92B2228515
:102AB0008023D2B2384900919B0439002000FFF7EF
:102AC000E7FC0BE0628D92B222858023D2B2002116
:102AD00000919B0439002000FFF7DAFC638D9BB264
:102AE000002B34D0320029002000FFF715FE00280B
:102AF0004BD123685B6A626A1370636A0133636255
:102B0000238D013B9BB22385628D013A92B262858F
:102B1000628D92B2002AE1D0002BDFD100962B000B
:102B2000002280212000FFF784FD00282FD1638D33
:102B30009BB2FF2BC6D9FF2323857F3B0022009247
:102B40005B04FF3239002000FFF7A2FCC6E7320029
:102B500029002000FFF7B2FD00281AD123682022A7
:102B6000DA6121684B680D4D2B404B604123E254E4
:102B700000232232A354023AA35400E0022005B0FD
:102B8000F0BD0220FBE70120F9E70120F7E7012073
:102B9000F5E70120F3E7C0460024008000E800FECE
:102BA000F0B54123C35C202B20D12033C35C012B23
:102BB0001ED0402401220255412524234355066896
:102BC000336893433360066833680A4F3B40336091
:102BD000066833681943316001680B6813430B6062
:102BE00020234355002303550020F0BD0220FCE7BD
:102BF0000220FAE7FFEFFFFFF0B54123C35C202B73
:102C00001ED12033C35C012B1CD04024012202556D
:102C1000412524234355066833689343336006688F
:102C20003368094F3B4009021943316001680B6862
:102C300013430B6020234355002303550020F0BDB0
:102C40000220FCE70220FAE7FFF0FFFFF0B583B0B7
:102C5000002357E084685F000326BE40B44326008B
:102C6000CC68BC4034438460446894434A68160985
:102C7000012232409A402243426053E0DC0808348B
:102C8000A400265805321A4092000F279740BE43F1
:102C90000F6997403A003243225057E0022600E085
:102CA0000026A64034003C4302329200424E94512A
:102CB000424A9468EA432600AE434F68FF0201D5BA
:102CC0002C4326003D4CA660E468260016404F6861
:102CD000BF0201D52C432600384CE660646826000C
:102CE00016404F68BF0301D52C432600334C666065
:102CF000246822404E68F60301D52A0022432F4C57
:102D0000226001330C682200DA4052D001229A403E
:102D1000250015401442F4D003244E683440013C91
:102D2000012C97D903224C682240032A09D0C2689B
:102D30005E000324B440A24314008A68B2402243D8
:102D4000C26003224C682240022A97D004685E00C9
:102D500003221700B740BC434F683A40B2402243B9
:102D60000260C02292024C681442CAD0144CA66978
:102D700001221643A661A46922400192019A9A0891
:102D8000941CA4000C4EA75903241C40A4000F2639
:102D9000A640B7439026F605B04281D0094EB04216
:102DA00005D0094EB04200D178E7052679E7012623
:102DB00077E703B0F0BDC0460000014000040140C9
:102DC00000100240000400480008004803690B425C
:102DD00001D0012070470020FCE7002A01D081616A
:102DE00070478162FCE730B50124056CAC40C56BCF
:102DF0006C60046863604368102B04D003689960BA
:102E00000368DA6030BD03689A600368D960F9E747
:102E100010B504000068054B9C4660441421FDF782
:102E200073F980002064024BE36310BDF8FFFDBF1F
:102E30000000024070B5041E20D021250223435516
:102E400001680B680E4A1A40436880680343E068D3
:102E500003432069034360690343A0690343E069B6
:102E6000034313430B602000FFF7D2FF0023A3634B
:102E7000012262551F32A354002070BD0120FCE7DF
:102E80000FC0FFFF70B504002020205C012832D065
:102E90002020012525540130205C012804D0202366
:102EA0000022E254022070BD20300135255400205C
:102EB000A063256828680126B04328602000FFF73A
:102EC00092FFE36A002B0BD0226813680E210B439C
:102ED00013602268136801210B4313600020E2E7AE
:102EE000226813680A210B431360226813680639AD
:102EF0008B431360EDE70220D5E710B52123C35CB7
:102F0000022B06D0042383631C330022C254012009
:102F100010BD026813680E218B43136001680A68B4
:102F200001239A430A60C26B1900046CA1405160EE
:102F3000212283541F330022C2540020E8E710B539
:102F40002123C35C022B03D004238363012010BD23
:102F5000026813680E218B43136001680A6801231D
:102F60009A430A60C26B1900046CA140516021228F
:102F700083541F330022C254436B002B02D0984766
:102F80000020E4E70020E2E770B5002811DB8308A9
:102F9000134EC0339B009D5903242040C000FF22E4
:102FA00014008440A54389010A4082402A439A5173
:102FB00070BD0F230340083B9B0806339B00094A62
:102FC000944663445C6803221040C000FC32150044
:102FD0008540AC4389010A40824022435A60E7E7BA
:102FE00000E100E000ED00E0002805DB1F231840B1
:102FF0001E3B8340014A13607047C04600E100E079
:10300000013880235B0498420FD2094A5060094876
:10301000036A1B021B0AC02109060B43036200233B
:10302000936007331360002070470120FCE7C0461F
:1030300010E000E000ED00E07047000010B511481E
:10304000114B036082235B00436000238360E02216
:10305000D200C2600361012242618022920082613B
:10306000E13AFF3AC261036243628362193AC26283
:103070000363436300F0B6F9002800D110BDFEF7EA
:10308000D5FBFBE77C0000200030014010B588B084
:1030900004001422002103A802F050FC2268124B05
:1030A0009A4201D008B010BD104B996980204001B0
:1030B000014399619A6902400192019A5A698021FB
:1030C00089020A435A615B690B400293029BE02329
:1030D0000393DE3B049301330693902003A9C005BC
:1030E000FFF7B4FDDEE7C0460030014000100240AB
:1030F000F0B5D6464F464646C0B582B006000D0034
:1031000090461F00FFF7AEF90A9B181A8146B94492
:10311000FFF7A8F982462E4B1B685B011B0D4A4640
:103120005343019333689C682C40641B63425C41A9
:10313000444545D07B1CF5D0FFF794F95346C01A9F
:1031400048450BD24B46002B08D0019A002A00D0EC
:103150004A46019B013B01939146E3E7326853687D
:10316000E0218B43536082235B0072689A420CD04B
:1031700080239B01B26A9A4216D05D230122F25449
:10318000013B0022F25403201BE0B36880221202AC
:10319000934203D08022D2009342E9D1326813686F
:1031A00040218B431360E3E73268136809490B4001
:1031B00013603268116880239B010B431360DCE7C6
:1031C000002002B0E0BCBA46B146A846F0BDC046F9
:1031D00008000020FFDFFFFFF0B5DE4657464E46F1
:1031E0004546E0B583B007000D00160098466B46D3
:1031F0000022DA70FFF736F90C9B181A404481461A
:10320000FFF730F982463B689B46364B1A689300BD
:103210009A18D3009B1A1B0D4A465343019302E0B0
:103220004346013311D13B689C682C40B44250D0D6
:10323000C023DB009D42F3D1002EF1D15B461B7B06
:10324000DBB26A46D370D378EAE7FFF70BF953464F
:10325000C01A48450BD24B46002B08D0019A002AD1
:1032600000D04A46019B013B01939146DBE73A6857
:103270005368E0218B43536082235B007A689A4253
:103280000CD080239B01BA6A9A4216D05D2301229A
:10329000FA54013B0022FA5403201BE0BB68802251
:1032A0001202934203D08022D2009342E9D13A68BD
:1032B000136840218B431360E3E73A6813680A49B7
:1032C0000B4013603A68116880239B010B43136025
:1032D000DCE7002003B0F0BCBB46B246A946A046DE
:1032E000F0BDC04608000020FFDFFFFF70B582B0D0
:1032F00004000D001600C02100922B00002249019D
:10330000FFF76AFF002818D100962B0000228021C9
:103310002000FFF7EDFE002816D1C02100962B00FB
:103320000022C9002000FFF757FF00280AD0236EB3
:10333000202213432366032004E0236E202213433C
:103340002366032002B070BD236E20221343236640
:103350000320F7E770B582B004000D001600822349
:103360005B0042689A420FD000962B000022802119
:103370002000FFF7BDFE002815D182235B006268A4
:103380009A4216D002B070BD836880221202934226
:1033900003D08022D2009342E6D1226813684021F4
:1033A0008B431360E0E7236E202213432366032040
:1033B000E8E7A36880221202934203D08022D20061
:1033C0009342DFD1C02100962B000022C9002000CB
:1033D000FFF702FF0028D5D0236E20221343236677
:1033E0000320CFE770B5041E00D178E0436A002BBC
:1033F00007D10533FF3342689A4205D00023C361E9
:1034000002E00023036143610023A3625D33E35CB8
:10341000002B5AD05D230222E25422681368402117
:103420008B431360E368E022D200934254D9002218
:10343000F02109018B4205D0E021C9008B4201D067
:103440000023A36282235B0061680B408421090290
:10345000A06801400B430221206901400B43012178
:1034600060690840034380208000A5692840034329
:103470003820E569284003438020256A284003431B
:1034800080208001A56A2840034320680360608B88
:10349000042303401020656A284003430820656B1D
:1034A00028400343F0200001E568284003432068DA
:1034B000134343602268D3690A480340D361002361
:1034C00023665D33E154002070BD5C330022E2547A
:1034D0002000FFF7DBFD9DE780225201A8E70120D5
:1034E000F2E7C046FFF7FFFFF0B5CE4600B584B067
:1034F0000400019191461D005C23C35C012B00D1A7
:10350000CBE05C230122C254FEF7ACFF06005D2332
:10351000E35CDFB2012B00D0B6E00199002900D1B5
:10352000B3E04B46002B00D1AFE05D230322E25411
:1035300000232366A1634A46A287E28723644422CC
:10354000A3520232A3522365E36480231B02A268C4
:103550009A421ED023681A68520603D41A68402182
:103560000A431A60E023DB00E2689A423ED96368AE
:10357000002B02D04B46012B20D12368A26B12886E
:10358000DA60A36B0233A363E38F013B9BB2E38753
:1035900014E02268136840218B431360226811688D
:1035A0008023DB010B431360D4E7FEF75BFF801B36
:1035B000A84201D36B1C14D1002D12D0E18F89B227
:1035C000002946D023689A689207EED5A26B12882C
:1035D000DA60A36B0233A363E38F013B9BB2E38703
:1035E000ECE75D230122E25403274EE06368002BE1
:1035F00002D04B46012B14D1A36B1B7822681373A6
:10360000A36B0133A363E38F013B9BB2E38708E025
:10361000FEF728FF801BA84201D36B1C14D1002D9C
:1036200012D0E18F89B2002913D023689A689207DB
:10363000EED5A26B12781A73A36B0133A363E38FE9
:10364000013B9BB2E387ECE75D230122E2540327B1
:103650001BE0320029002000FFF748FE002801D0BF
:1036600020232366A368002B06D103932368DA681E
:1036700003929B680393039B236E002B05D15D335C
:103680000122E254002700E002275C230022E254DA
:10369000380004B080BCB946F0BD0227F8E700004E
:1036A000F0B583B00400009101921E00089D5C23D8
:1036B000C35C012B00D11EE15C230122C254FEF742
:1036C000D1FE07005D23E35CD9B26268012B0BD009
:1036D00082235B009A4200D0FBE0A368002B00D05D
:1036E000FDE0042900D0FCE0009B002B00D1FAE0B3
:1036F000019B002B00D1F8E0002E00D1F7E05D2304
:10370000E35C042B02D05D230522E25400232366F0
:10371000019A22644622A652023AA652009AA26355
:10372000E687A687E3642365E023DB00E2689A422C
:1037300023D92268536871490B40536023681A6883
:10374000520603D41A6840210A431A60E023DB00C2
:10375000E2689A4258D96368002B01D0012E0AD141
:103760002368A26B1288DA60A36B0233A363E38F32
:10377000013B9BB2E38701262DE02268516880233C
:103780005B010B435360D9E7A26B1288DA60A36B2D
:103790000233A363E38F013B9BB2E38700262368D8
:1037A0009A68D20710D54622A25A92B2002A0BD0AC
:1037B000DB68226C1380236C023323644622A35AF5
:1037C000013B9BB2A3520126FEF74CFEC01BA84250
:1037D00001D36B1C13D1E38F9BB2002B04D1463372
:1037E000E35A9BB2002B63D023689A689207D6D520
:1037F000E28F92B2002AD2D0012ED0D1C4E75D234D
:103800000122E254032065E06368002B01D0012E01
:103810000AD1A36B1B7822681373A36B0133A363D4
:10382000E38F013B9BB2E38701261DE023689A6882
:10383000D20710D54622A25A92B2002A0BD01B7B87
:10384000226C1370236C013323644622A35A013B7C
:103850009BB2A3520126FEF705FEC01BA84201D36E
:103860006B1C20D1002D1ED0E38F9BB2002B04D106
:103870004633E35A9BB2002B1AD023689A6892070A
:10388000D4D5E28F92B2002AD0D0012ECED1A26B35
:1038900012781A73A36B0133A363E38F013B9BB2CE
:1038A000E3870026C2E75D230122E254032011E0F2
:1038B0003A0029002000FFF719FD002802D020233C
:1038C00023660120236E002B13D15D330122E254C5
:1038D00000E002205C230022E25403B0F0BD02208D
:1038E000F8E70220F6E70120F4E70120F2E70120E3
:1038F000F0E70120EEE70220EFE7C046FFEFFFFF11
:10390000F0B5CE4600B584B00400039116001D004A
:103910005D23C35CDFB2012B00D0BAE00433FF3378
:1039200042689A423DD05C23E35C012B00D1B9E0B0
:103930005C230122E254FEF795FD8146039900299C
:1039400000D1A7E0002E00D1A4E05D230422E254C0
:103950000023236621644032A6520232A652A3639A
:10396000A387E387E3642365E023DB00E2689A42F0
:1039700024D9226853684C490B40536080231B02B2
:10398000A2689A4221D023681A68520603D41A68A2
:1039900040210A431A60E023DB00E2689A4229D9F9
:1039A0004CE08368002BBED15D330422C2540095E5
:1039B00033000A00FFF774FE07006EE022685168CA
:1039C00080235B010B435360D8E7226813684021D2
:1039D0008B4313602268136834490B401360D2E7AD
:1039E000FEF740FD4B46C01AA84201D36B1C16D10E
:1039F000002D14D04623E35A9BB2002B38D0236805
:103A00009A68D207ECD51B7B226C1370236C0133B0
:103A100023644622A35A013B9BB2A352EAE75D23EB
:103A20000122E254032735E0FEF71CFD4B46C01A85
:103A3000A84201D36B1C16D1002D14D04623E25AA4
:103A400092B2002A14D023689A68D207ECD5DB68BA
:103A5000226C1380236C023323644622A35A013B59
:103A60009BB2A352EAE75D230122E254032711E04F
:103A70004A4629002000FFF76DFC002801D02023D2
:103A80002366236E002B05D15D330122E25400270B
:103A900000E002275C230022E254380004B080BC1E
:103AA000B946F0BD0227F8E7FFEFFFFFFFBFFFFFBA
:103AB00010B51448144B0360144B4360002383601B
:103AC0000122C260036143618361C3610362FEF747
:103AD00073FE00280CD100210A48FFF761F8002886
:103AE00009D100210748FFF787F8002806D110BD4B
:103AF000FDF79CFEEFE7FDF799FEF2E7FDF796FE76
:103B0000F5E7C046E0000020005400402B1D2000D7
:103B100010B588B004001422002103A801F00EFFA4
:103B20002268134B9A4201D008B010BD114C626953
:103B3000802189020A43626163690B400193019B02
:103B4000C023DB000393122304930F3B069301333E
:103B50000793902003A9C005FFF778F8E269802158
:103B600089030A43E261E3690B400293029BDBE7AE
:103B7000005400400010024010B582B0140001AAA9
:103B8000344B1B881380002393700F330340502065
:103B900003431370917014E0802190204901C00507
:103BA000FFF714F9013843425841C0B207E0012140
:103BB0002948FFF70BF9013843425841C0B20028A9
:103BC0000CD0022CE8D0012CF1D102212248FFF7C1
:103BD000FDF8013843425841C0B2F0E7022C1AD038
:103BE000012C20D0902000220821C005FFF7F5F815
:103BF000FA239B00032201A91848FFF775FC022C49
:103C000018D0012C1ED0902001220821C005FFF7FA
:103C1000E4F802B010BD8021903000220901C005F7
:103C2000FFF7DBF8E4E7902000221021C005FFF742
:103C3000D4F8DDE78021902001220901C005FFF7BB
:103C4000CCF8E6E7902001221021C005FFF7C5F867
:103C5000DFE7C04664590008000400487C000020EB
:103C600010B582B004006B46F022DA7114E08021B6
:103C700090204901C005FFF7A9F801384342584197
:103C8000C0B207E002213A48FFF7A0F801384342EA
:103C90005841C0B200280CD0022CE8D0012CF1D041
:103CA00001213348FFF792F8013843425841C0B22E
:103CB000F0E7022C10D0012C16D090200022082111
:103CC000C005FFF78AF8FA239B00012269460731F5
:103CD0002848FFF709FC23E08021903000220901E9
:103CE000C005FFF77AF8EEE7902000221021C0050A
:103CF000FFF773F8E7E7802190204901C005FFF73F
:103D000065F8431E5A425341DBB207E001211848CF
:103D1000FFF75CF8431E5A425341DBB2002B0CD034
:103D2000022CE8D0012CF1D102211148FFF74EF806
:103D3000431E5A425341DBB2F0E7022C09D0012C5A
:103D40000FD0902001220821C005FFF746F802B0ED
:103D500010BD8021902001220901C005FFF73DF828
:103D6000F5E7902001221021C005FFF736F8EEE7B5
:103D7000000400487C00002070B582B005000C00F3
:103D800001AB00221A80FC321A70072816D902B043
:103D900070BD802190204901C005FFF717F8431E30
:103DA0005A425341DBB207E001214748FFF70EF8C2
:103DB000431E5A425341DBB2002B0CD0022CE8D0F8
:103DC000012CF1D102214048FFF700F8431E5A426E
:103DD0005341DBB2F0E7072D08D8AD003B4B5B59F0
:103DE0009F46220008210120FFF7C6FE022C4CD07E
:103DF000012C52D0902000220821C005FEF7EDFFD3
:103E0000FA26B600324D3300012201A92800FFF73F
:103E10006BFB33000122694605312800FFF764FB84
:103E2000022C41D0012C47D0902001220821C0054E
:103E3000FEF7D3FFABE7220018210120FFF79CFE1D
:103E4000D4E7220028210120FFF796FECEE72200CA
:103E500038210120FFF790FEC8E722004821012009
:103E6000FFF78AFEC2E7220058210120FFF784FEF7
:103E7000BCE7220068210120FFF77EFEB6E72200A2
:103E800078210120FFF778FEB0E780219020002202
:103E90000901C005FEF7A1FFB2E790200022102122
:103EA000C005FEF79AFFABE78021902001220901AF
:103EB000C005FEF792FF6AE7902001221021C0059D
:103EC000FEF78BFF63E7C04600040048205A000855
:103ED0007C00002010B50400020006210020FFF73E
:103EE0004BFE220000210220FFF746FE2200F021B7
:103EF0000320FFF741FE2000FFF7B2FE2100002063
:103F0000FFF73AFF10BD0000F0B583B0040001AB2D
:103F1000404A12881A8000229A706B460132DA7089
:103F200014E0802190204901C005FEF74FFF431E99
:103F30005A425341DBB207E001213748FEF746FF02
:103F4000431E5A425341DBB2002B0CD0022CE8D066
:103F5000012CF1D102213048FEF738FF431E5A42AE
:103F60005341DBB2F0E7022C36D0012C3CD090203C
:103F700000220821C005FEF730FFFA27BF00274EB8
:103F80003B000122694603313000FFF7ADFA244DB2
:103F900028703B00032201A93000FFF7B1FC287014
:103FA000022C28D0012C2ED0902001220821C005FF
:103FB000FEF713FF01AB187800045A781202104381
:103FC0009B78184380231B04184203D04042000210
:103FD000000A404203B0F0BD802190200022090178
:103FE000C005FEF7FAFEC8E7902000221021C005A8
:103FF000FEF7F3FEC1E78021902001220901C005F0
:10400000FEF7EBFED6E7902001221021C005FEF757
:10401000E4FECFE764590008000400487C0000205B
:104020003401002000B585B06B4618735973FA232C
:104030009B000093022303AAB4210348FEF72AFC45
:10404000024B187005B000BDE000002035010020D3
:10405000F0B585B00C000F226A4410700A4EFA27A2
:10406000BF0000970123B4213000FEF713FC074D79
:104070002870009701232200B4213000FEF7D6FCFF
:10408000287005B0F0BDC046E000002035010020DA
:1040900000B583B06B46D91D00230B700020FFF7DD
:1040A000D7FF0E4B1B78002B0FD16B46D9794B09EC
:1040B0000B4A1370C8080123184050704808184074
:1040C00090700B40D37003B000BD054B00221A70F6
:1040D00001325A709A70DA70F5E7C0463501002057
:1040E0003801002000B583B000236A46D3716A46C8
:1040F00093716A465371FFF7CBFF1E4B1B78072B5A
:1041000001D003B000BD06210320FFF78BFF2F2154
:104110001620FFF787FF59211720FFF783FFB621ED
:104120001A20FFF77FFF93211B20FFF77BFF07215A
:104130000120FFF777FF01210C20FFF773FFFA2022
:10414000800000F05DF86B46D91D1820FFF780FF56
:104150006B46991D1920FFF77BFF6B46591D1A20EE
:10416000FFF776FF6B465A79032313406A46537173
:10417000C7E7C0463801002010B5041C7B2800D9D1
:104180007B24E4B2002800D1012400210120FFF7A4
:1041900049FF21000420FFF745FF01210C20FFF714
:1041A00041FF10BD00B583B000236A46D371D11D15
:1041B0000120FFF74DFF6B46D9794B0601D503B0BF
:1041C00000BD40231943C9B20120FFF72BFFF6E7DA
:1041D000044B1B68002B03D0024A1368013B136099
:1041E0007047C0463C010020014B18687047C0462C
:1041F0003C010020014B18607047C0463C01002084
:1042000010B5FFF7F7FFFFF7EFFF0028FBD110BD58
:1042100010B50C480C4B0360E1231B0343600023E3
:104220008360C36003610C2242618361C3610362E6
:10423000436200F037FD002800D110BDFDF7F6FA0B
:10424000FBE7C046400100200038014010B588B0AF
:1042500004001422002103A801F070FB2268154B12
:104260009A4201D008B010BD134B99698020C0015B
:10427000014399619A6902400192019A5A69802129
:10428000C9020A435A615B690B400293029BC02337
:104290000393BE3B04930133069303A90748FEF73B
:1042A000D5FC002202211B20FEF76EFE1B20FEF72C
:1042B0009BFED7E700380140001002400004004890
:1042C00010B5EFF3108C012282F3108801680B689F
:1042D000124C23400B608CF31088EFF3108C82F3A8
:1042E000108801688B6893438B608CF31088036E91
:1042F000012B06D080232022C25000230366836650
:1043000010BDEFF3108183F3108802681368323414
:10431000FF34A343136081F31088EBE7DFFEFFFF58
:10432000704710B5EFF31081012383F31088026802
:1043300013684024A343136081F310882023C367CC
:104340000023C366FFF7ECFF10BD7047704710B540
:10435000406A00235A228352083A8352FFF7F6FF3D
:1043600010BD000070B504000268D369106895683C
:10437000AD491E000E400B4203D1990601D58106BE
:104380001DD4002E07D001210E002E4029421CD141
:10439000A649084219D1216E012900D198E0D9021D
:1043A00002D5690200D52DE11A0602D5020600D514
:1043B0002FE15B0602D5430600D531E170BDA36E47
:1043C000002BFBD020009847F8E7D90707D5C10597
:1043D00005D501251562842162582A4362509A0747
:1043E00009D5002E07D0226802211162823162585D
:1043F00004252A4362505A0709D5002E07D02268A7
:10440000042111628031625802252A4362501A0742
:104410000AD5820601D4002E06D02268082515622E
:10442000842162582A4362501A050AD5420108D5F0
:1044300022688021090111628421625820252A43C3
:1044400062508422A258002AB8D09B0606D5830663
:1044500004D5A36E002B01D0200098478423E25896
:1044600023689B685B0602D42823134229D02000CE
:10447000FFF726FF23689B685B061ED5EFF31081CC
:10448000012383F31088226893684020834393605C
:1044900081F31088636F002B0BD0654A5A63606FFD
:1044A000FEF74DFD002800D188E7606F436B984709
:1044B00084E72000FFF74AFF80E72000FFF746FF70
:1044C0007CE72000FFF742FF84230022E25075E7DB
:1044D000D90600D463E7C10600D460E71023136255
:1044E00023689B685B0652D5626F13685B689BB25A
:1044F000002B00D162E75821615A994200D85DE74C
:104500005A2163529369202B0BD1022363665633E1
:10451000E15A0233E35AC91A89B2200000F00AFDB9
:104520004CE7EFF31080012383F3108821680A68B9
:10453000404D2A400A6080F31088EFF3108083F327
:10454000108821688A689A438A6080F31088EFF3A4
:10455000108083F3108821688A684235FF35AA43AA
:104560008A6080F3108880222021A15000222266D8
:10457000EFF3108183F310882268136810208343BF
:10458000136081F31088606FFEF7B7FCBDE7582316
:10459000E15A0233E25A891A89B2E35A9BB2002BDC
:1045A00000D10BE7002900D108E7EFF310850123C4
:1045B00083F31088206802681F4E3240026085F342
:1045C0001088EFF3108583F31088206882689A437F
:1045D000826085F3108880222020A050002222666D
:1045E000A266EFF3108083F3108822681368102509
:1045F000AB43136080F3108802236366200000F051
:1046000099FCDBE680235B031362200000F0FAFBD9
:10461000D4E6E36E002B00D1D0E620009847CDE62B
:104620002000FFF77EFEC9E60F080000200100040D
:104630004F430008FFFEFFFFDFFEFFFF10B55C23C6
:10464000C35A80228258222A05D002689369082121
:104650000B43936110BD0268928CDBB21340426D34
:104660001370436D013343655A22835A013B9BB259
:104670008352835A9BB2002BECD1EFF3108C593A42
:1046800082F3108801680B68214C23400B608CF387
:104690001088EFF3108C82F3108801688B689343C5
:1046A0008B608CF3108880231F32C25000238366F6
:1046B000436603685B681B020BD5EFF3108101238F
:1046C00083F3108802681368124C2340136081F34F
:1046D0001088036E012B17D100230366EFF31084BB
:1046E000013383F3108801680B68102293430B6039
:1046F00084F310880368D9690A4200D01A625823EB
:10470000C15A00F017FCA5E7FFF71FFEA2E7C0465D
:10471000DFFEFFFFFFFFFFFB10B55C23C25A24330F
:10472000C358222B05D00268936908210B4393617B
:1047300010BD03689B8C1340426D1380436D0233A0
:1047400043655A22835A013B9BB28352835A9BB2E0
:10475000002BEDD1EFF3108C593A82F310880168E9
:104760000B68214C23400B608CF31088EFF3108C06
:1047700082F3108801688B6893438B608CF31088F8
:1047800080231F32C25000238366436603685B6840
:104790001B020BD5EFF31081012383F3108802680D
:1047A0001368124C2340136081F31088036E012BB1
:1047B00017D100230366EFF31084013383F31088CD
:1047C00001680B68102293430B6084F31088036820
:1047D000D9690A4200D01A625823C15A00F0AAFBD4
:1047E000A6E7FFF7B2FDA3E7DFFEFFFFFFFFFFFB3A
:1047F00010B5040083680269134342691343C26918
:10480000134301680A684F48024013430B60226853
:1048100053684D490B40E1680B435360226AA3691A
:104820001A4321688B684948034013438B6023680F
:10483000474A934222D0474A934230D01023E0693E
:1048400080221202904234D0042B00D172E060D852
:10485000002B68D0022B5AD13F4863685B081818B8
:104860006168FBF751FC0200103A3C4B9A4266D853
:1048700023680004000CD860002050E0384B1A6B0D
:1048800003231340022B0CD005D8002B0BD0012B97
:104890000BD10333D3E7032B09D1013BCFE700232F
:1048A000CDE70823CBE70023C9E71023C7E7102390
:1048B000C5E7042B28D01DD8002B1FD0022B17D101
:1048C0002548400063685B08C0186168FBF71CFC62
:1048D0000200103A214B9A422FD882B20F239A43FA
:1048E0004008083B184010432368D860002016E0B9
:1048F000012014E0082BE4D0012010E0FDF7BCFCFF
:104900000028DED100200AE0FDF7D2FBF8E7012005
:1049100005E0082B02D1802000029EE70120002341
:10492000A366E36610BDFDF7A7FC002800D094E75E
:104930000020F4E7FDF7BCFBF7E70120EFE70120DB
:10494000EDE7C046F369FFEFFFCFFFFFFFF4FFFF86
:10495000003801400044004000127A00EFFF0000E0
:1049600000100240436A1B0706D5026853682C49B1
:104970000B40416B0B435360436ADB0706D502686B
:10498000536828490B40816A0B435360436A9B0775
:1049900006D50268536824490B40C16A0B43536033
:1049A000436A5B0706D50268536820490B40016BD8
:1049B0000B435360436ADB0606D5026893681C49C3
:1049C0000B40816B0B439360436A9B0606D50268DC
:1049D000936818490B40C16B0B439360436A5B06B5
:1049E0000BD50268536814490B40016C0B435360AC
:1049F00080235B03026C9A420AD0436A1B0606D5E9
:104A0000026853680D490B40816C0B43536070473B
:104A1000026853680A490B40416C0B435360ECE752
:104A2000FF7FFFFFFFFFFDFFFFFFFEFFFFFFFBFF1D
:104A3000FFEFFFFFFFDFFFFFFFFFEFFFFFFFF7FFCE
:104A4000FFFF9FFFF8B5CE46474680B506000D0034
:104A500017009946089B98463368DC692C40641B14
:104A600063425C41BC4233D143460133F4D0FDF78D
:104A7000F9FC4B46C01A40452FD84346002B2ED098
:104A800033681A685207E7D5802DE5D0402DE3D072
:104A9000DA69120710D4DA691205DDD58022120115
:104AA0001A623000FFF70CFC84232022F2500C3BEA
:104AB0000022F25403200CE008241C623000FFF7AF
:104AC000FFFB8423F4500C3B0022F254012000E051
:104AD0000020C0BCB946B046F8BD0320F9E703206A
:104AE000F7E7F0B5C64600B582B004000D00904669
:104AF0001E00C36F202B62D1002965D0002A65D02B
:104B000080235B0182689A4204D10369002B01D1A2
:104B1000CB075DD484230022E250633BE367FDF7BB
:104B2000A1FC070050234246E2520233E2528023A6
:104B30005B01A2689A4202D0002398461AE02369DA
:104B4000002B02D00023984614E0A846002511E06F
:104B50002023E367032033E043461B88DB05DB0D9E
:104B60002268138502239C46E0445223E25A013A0C
:104B700092B2E2525223E35A9BB2002B0FD000961E
:104B80003B00002280212000FFF75CFF0028DFD1DE
:104B9000002DE1D02B78226813850135E5E70096DA
:104BA0003B00002240212000FFF74CFF002802D1EB
:104BB0002023E36704E02023E367032000E00220D2
:104BC00002B080BCB846F0BD0120F9E70120F7E74C
:104BD0000120F5E730B583B0040084230022C250E1
:104BE000FDF740FC05002268126813070FD4236804
:104BF0001B685B0729D42023E3678022A35000238E
:104C000023666366083AA354002003B030BD8021B8
:104C1000224B00930300002289032000FFF712FFBC
:104C20000028E4D0EFF31081012383F31088226879
:104C3000136880208343136081F310882023E36787
:104C400058330022E2547D38DFE78021134B009374
:104C50002B000022C9032000FFF7F4FE0028CAD071
:104C6000EFF31080012282F3108821680B680C4D4D
:104C70002B400B6080F31088EFF3108082F31088D4
:104C800021688B6893438B6080F3108880231F32E8
:104C9000E250083B0022E2540320B6E7FFFFFF0189
:104CA000DFFEFFFF10B5041E2ED0C36F002B21D0F6
:104CB0002423E3672268136801218B431360636A2E
:104CC000002B1DD12000FFF793FD012811D0226891
:104CD00053680E490B405360226893682A218B4326
:104CE00093602268136829390B4313602000FFF793
:104CF00071FF10BD78330022C254FFF7A7FAD7E73F
:104D00002000FFF72FFEDDE70120F2E7FFB7FFFFEE
:104D100041655823C2520233C2520023836683681E
:104D200080225201934208D0002B15D10369002B39
:104D30000ED15C33FF22C25215E00369002B03D170
:104D40005C332D4AC2520EE05C23FF22C2520AE0BD
:104D50005C237F22C25206E08022520593422CD06F
:104D60005C230022C25284230022C250043B223220
:104D7000C250EFF3108C012181F310880268936810
:104D80000B4393608CF3108880235B0182689A4206
:104D90001ED01A4B83660369002B1FD0EFF31081DE
:104DA000012383F31088026810682033FF33034324
:104DB000136081F31088002070470369002B03D132
:104DC0005C337F22C252CEE75C233F22C252CAE745
:104DD0000369002BDDD10A4B8366DCE7EFF310811A
:104DE000012383F3108802681368202003431360B3
:104DF00081F31088DFE7C046FF0100003D46000850
:104E000019470008704710B504008023C358202BB1
:104E100029D1002929D0002A29D080235B0180686C
:104E2000984204D12369002B01D1CB0721D401235F
:104E30002366002363662000FFF76AFF236E012BC1
:104E400001D0012010E0236810211962EFF31080D7
:104E5000012383F31088226813680B43136080F3E7
:104E60001088002000E0022010BD0120FCE7012096
:104E7000FAE70120F8E7000010B50848084B036086
:104E800000234360FA231B01C360836000F00AF82B
:104E9000002800D110BDFCF7C9FCFBE7C8010020C9
:104EA0000030004070B5041E28D00368144A1A6010
:104EB0000368144A1A60036842685A60036882688B
:104EC0009A60FDF7CFFA05002368DA6852070AD026
:104ED000FDF7C8FA401B2728F6D92368DB685B0773
:104EE000F2D003200BE01969E268914202D01A6106
:104EF000002004E0044A1A60002000E0012070BD98
:104F0000CCCC000055550000AAAA00000368024A54
:104F10001A6000207047C046AAAA000010B50A22F5
:104F200002490348FFF76FFF10BDC046FC01002097
:104F30004001002010B50268254B9A4200D010BDF8
:104F4000244B1B78552B12D0234C0A2221492000D8
:104F5000FFF759FF5A23E35A9BB25822A25A9342B1
:104F6000EDD21D4B5A215A521A4A5A65E7E7194B9E
:104F70005B78AA2BE8D1A83B002205E01549C95C63
:104F80008A18D2B20133DBB2052BF7D9114B9B79CA
:104F90009342D9D10F4B9A78104B1A701B78DBB221
:104FA000042BD1D80D4B1978C9B20A4AD4780C48D1
:104FB00044541079000251791A780143520009488B
:104FC00011521B785B00084A00219952BCE7C04689
:104FD00000380140FC01002040010020D8010020E1
:104FE00008020020DC010020EC010020014B185CCD
:104FF000C0B27047080200204000034BC35A9BB266
:10500000024A83527047C046DC010020EC010020B8
:10501000002301E00133DBB2072B0BD85A0006490D
:10502000525A92B2002AF5D05800425A013A92B22E
:105030004252EFE77047C046EC0100204000024BAF
:10504000C05A80B27047C046EC010020034A138862
:1050500001339BB2138013887047C046DA010020E9
:10506000014B188880B27047DA01002070B584B017
:10507000A4236A46D37300269673134CFA25AD0019
:10508000009501230F226A44E0212000FDF702FC75
:10509000009501230E226A44E0212000FDF7C6FCA2
:1050A0006B46DE73009501230F226A44E021200045
:1050B000FDF7F0FB6B469B7BA42B02D0002004B0D5
:1050C00070BD0120FBE7C046E000002000B585B0C0
:1050D0000F236B4400221A70072804D80123834051
:1050E0000F326A441370FA239B00009301230F22AE
:1050F0006A44E0210248FDF7CDFB05B000BDC04683
:10510000E000002000B585B00C22002101A800F0CD
:1051100015FC1948194B036080231B0643600023CC
:105120008360C360012202610421416103764376FA
:105130008276C376C221FF31C16103629E39FF3995
:105140004254836200F0AAF800280ED11123019383
:1051500080235B0102930423039301A9064800F016
:1051600031FA002804D105B000BDFCF75FFBEDE784
:10517000FCF75CFBF7E7C04610020020002401406A
:1051800010B582B00400154B02689A4201D002B0FB
:1051900010BD134A91698020800001439161936999
:1051A00003400193019B0F480F4B036000234360B2
:1051B00083608022C260803202618022D20042611C
:1051C00020228261C361FDF735FE002803D1054B23
:1051D00023635C62DBE7FCF729FBF8E7002401406E
:1051E00000100240500200200800024030B583B099
:1051F0000400002301930368996803220A40012AEE
:1052000014D09968224A114218D19A6801210A43A0
:105210009A60204B18682049FAF776FF0190019BAD
:10522000002B15D0019B013B0193F8E71A68D207C8
:105230002BD4DA681204E4D5002024E0A36B1022FA
:105240001343A363E36B0F3A1343E36301201AE0B4
:10525000FDF708F9050023681B68DB0712D4FDF78A
:1052600001F9401B0228F6D923681B68DB07F2D43A
:10527000A36B10221343A363E36B0F3A1343E3635F
:10528000012000E0002003B030BD0020FBE7C04655
:10529000170000800800002040420F0070B5041E77
:1052A00000D1B4E0836B002B00D180E0A36BDB0660
:1052B00000D5A6E022689168042005000D40084250
:1052C00000D09EE0A16B534B19400633FF331943C6
:1052D000A163916801330B40012B6ED0D368182174
:1052E0008B43A1680B43D360226813699B009B0822
:1052F00061680B4313612268D36847490B40D36050
:10530000237E9B03627ED2031343A17E4A03134391
:10531000A26A012A58D0802252011343E268134343
:105320002269022A52D02B432422A25C520013434A
:10533000E27E012A4CD0E269C221FF318A4202D0CA
:10534000216A0A4313432168CA681A43CA60E26AA1
:10535000802149058A420DD0012A0BD0022A09D0AA
:10536000032A07D0042A05D0052A03D0062A01D033
:10537000072A0AD1206841690722914341612068C8
:105380004169E56A2A400A4342612268D26823499A
:105390000A409A422BD0A36B12229343023A134342
:1053A000A363E36B0F3A1343E36301202EE0C3636F
:1053B00034228354FFF7E4FE78E71368DB079AD4BE
:1053C000D3681B0497D489E72A00A6E70425AAE737
:1053D000002903D1802252021343ACE7A26B2021A3
:1053E0000A43A263E26B1F390A43E263A3E7002387
:1053F000E363A36B03229343023A1343A3630020A6
:1054000004E0A36B10221343A363012070BD0120AD
:10541000FCE7C046FDFEFFFF1902FEFFE7FF3F83EA
:1054200010B5040003689B685B0723D43423C35C76
:10543000012B21D034230122C254437E012B14D1ED
:105440000020A36B0D4A1A4080235B001343A36323
:105450000023E3633422A3542368183A1A602268B5
:10546000936804210B43936010BDFFF7BFFE002833
:10547000FAD1E6E70220F7E70220F5E7FEF0FFFFAA
:10548000F8B504000D00160003689B685B073ED466
:105490003423C35C012B3CD034230122C254437E0D
:1054A000012B04D0FFF7A2FE071E2ED100E000273B
:1054B000A36B194A1A4080235B001343A3630023A4
:1054C000E3633422A354236B144A9A62236B144A75
:1054D000DA62236B134A1A6323681C221A6022685B
:1054E000536810210B4353602268D3680F390B4374
:1054F000D3602168403133002A00206BFDF7C2FCE5
:105500002268936804210B4393603800F8BD02279A
:10551000FBE70227F9E7C046FEF0FFFF2D55000824
:105520009F550008AB5500087047000010B5436A4E
:105530009A6B502111422BD1996B802292000A4321
:105540009A631A68D068C0210901084213D1997E74
:10555000002910D1116809070DD5916849070ED4AB
:1055600051680C20814351609A6B0B490A40043109
:10557000FF310A439A631800FFF7D6FF10BD9A6BFC
:1055800020210A439A63DA6B1F390A43DA63F2E790
:105590001B6B1B6B9847F1E7FEFEFFFF704710B5D2
:1055A000406AFFF7FBFF10BD704710B5406A836B80
:1055B000402213438363C36B3C3A1343C363FFF737
:1055C000F3FF10BD30B583B00400002301933433E2
:1055D000C35C012B00D18AE034230122C25403684A
:1055E0009A68520775D4434A4868904256D09A6ADE
:1055F00001200D68A84002439A62E36A80225205A6
:1056000093421ED0012B1CD0022B1AD0032B18D092
:10561000042B16D0052B14D0062B12D0072B10D03C
:1056200022685069072303408868984209D050696E
:10563000072398435061206842698D682B401343CB
:1056400043610B681A00103A022A4CD82A4A1268A1
:10565000102B0ED0112B09D080235B041343264A54
:1056600013600B68102B07D0002037E08023DB038A
:10567000F4E780231B04F1E7204B18682049FAF770
:1056800043FD83001B185B00019302E0019B013B7B
:105690000193019B002BF9D100201FE09A6A0120A1
:1056A0000D68A84082439A620B681A00103A022AD9
:1056B0001BD8114A1268102B09D0112B05D0114BA1
:1056C00013400D4A1360002008E00F4BF8E70F4B22
:1056D000F6E7836B202213438363012034230022E7
:1056E000E25403B030BD0020F8E70020F6E70220C6
:1056F000F7E7C0460110000008270140080000201D
:1057000040420F00FFFFFFFEFFFFBFFFFFFF7FFFD5
:1057100070B504003423C35C012B50D03423012224
:10572000C2540368996802320A40012A05D11A68F6
:10573000D2073ED4DA6812043BD4A26B21490A4056
:105740000631FF310A43A263DE6801310E40DA6898
:105750008A43DA602268916880231B060B439360BA
:10576000FCF780FE050023689A68002A13DAFCF72C
:1057700079FE401B0228F6D923689B68002BF2DAD9
:10578000A36B12229343023A1343A36334230022F0
:10579000E25401200CE0DA681643DE60A36B0322BA
:1057A0009343023A1343A363002034230022E254BC
:1057B00070BDA36B20221343A3630120F5E70220F1
:1057C000F6E7C046FDFEFFFF82B0054A516901239E
:1057D00019435161526913400193019B02B0704714
:1057E0000010024070B51B4B1C880023002005E010
:1057F0005A1C5B0018495B5A1818D3B2312BF7D9E1
:105800003221FAF781FC80B2144B18801B889BB2BE
:10581000642B1BD92000FBF77BFE114A114BFBF7D1
:1058200013F804000D000D4B188880B2FBF740FE02
:1058300002000B0020002900FAF710FD00220A4B9D
:10584000FBF702F8FAF7ECFC084B1860074B1868F6
:1058500070BDC046BAF7FF1F94020020FC02002072
:105860006666666666660A4080842E41F8020020FD
:1058700013488546FDF7E0FB12480168090E124AFD
:10588000914205D111481249016012481249016044
:1058900012481349134A002302E0D458C450043379
:1058A000C4188C42F9D3104A104C002301E0136055
:1058B0000432A242FBD300F01DF8FBF7FFFFFEE726
:1058C00000180020040000001F0000001810024013
:1058D0000100000000000140000000000000002066
:1058E0000C000020485A00080C0000200003002093
:1058F000FEE7000070B500260C4D0D4C641BA41093
:10590000A64209D1002600F021F80A4D0A4C641B7A
:10591000A410A64205D170BDB300EB5898470136DC
:10592000EEE7B300EB5898470136F2E7405A00081B
:10593000405A0008405A0008445A000803008218E0
:10594000934200D1704719700133F9E7F8B5C046AA
:10595000F8BC08BC9E467047F8B5C046F8BC08BC09
:045960009E467047A8
:1059640000000000380300082603000804030008B0
:105974002E030008040300080606000804030008B8
:105984002E03000826030008260300080606000864
:105994002E030008F0020008F0020008F0020008DC
:1059A4007C0600082E090008EC080008EC08000832
:1059B400E8080008F2080008F2080008FE0B0008D6
:1059C400E8080008F2080008FE0B0008F2080008C6
:1059D400E8080008920B0008920B0008920B0008DC
:1059E400680C000802030405060708090A0B0C0DDD
:1059F4000E0F10100102030405060708090A0B0C18
:105A04000D0E0F100000000000000000010203044E
:105A1400060708090000000001020304E23D000833
:105A2400363E0008423E00084E3E00085A3E00083A
:0C5A3400663E0008723E00087E3E00083E
:045A4000E900000871
:045A4400C100000895
:0C5A4800010000000400000000127A00C1
:040000050800587126
:00000001FF
